{
  "transactions": [
    {
      "hash": "0xeca3b28bd607f507162099d6e068c8f80d8b91aca386244cf99194e42fd92169",
      "transactionType": "CREATE",
      "contractName": "USDC",
      "contractAddress": "0x75025D2470BC8a4E59Fd53477770F3dAB4d77942",
      "function": null,
      "arguments": [
        "0xe2D3C55a61BE30ce58324Be5bd188F1bEAc06f58"
      ],
      "transaction": {
        "type": "0x02",
        "from": "0xe2d3c55a61be30ce58324be5bd188f1beac06f58",
        "gas": "0xd6a3d",
        "value": "0x0",
        "data": "0x60806040523480156200001157600080fd5b5060405162000e9a38038062000e9a8339810160408190526200003491620002ca565b806040518060400160405280600e81526020016d2aa9902237b63630b91021b7b4b760911b815250604051806040016040528060048152602001635553444360e01b81525081600390816200008a9190620003a3565b506004620000998282620003a3565b5050506001600160a01b038116620000cc57604051631e4fbdf760e01b8152600060048201526024015b60405180910390fd5b620000d78162000107565b506200010033620000eb6012600a62000584565b620000fa90620186a062000595565b62000159565b50620005c5565b600580546001600160a01b038381166001600160a01b0319831681179093556040519116919082907f8be0079c531659141344cd1fd0a4f28419497f9722a3daafe3b4186f6b6457e090600090a35050565b6001600160a01b038216620001855760405163ec442f0560e01b815260006004820152602401620000c3565b620001936000838362000197565b5050565b6001600160a01b038316620001c6578060026000828254620001ba9190620005af565b909155506200023a9050565b6001600160a01b038316600090815260208190526040902054818110156200021b5760405163391434e360e21b81526001600160a01b03851660048201526024810182905260448101839052606401620000c3565b6001600160a01b03841660009081526020819052604090209082900390555b6001600160a01b038216620002585760028054829003905562000277565b6001600160a01b03821660009081526020819052604090208054820190555b816001600160a01b0316836001600160a01b03167fddf252ad1be2c89b69c2b068fc378daa952ba7f163c4a11628f55a4df523b3ef83604051620002bd91815260200190565b60405180910390a3505050565b600060208284031215620002dd57600080fd5b81516001600160a01b0381168114620002f557600080fd5b9392505050565b634e487b7160e01b600052604160045260246000fd5b600181811c908216806200032757607f821691505b6020821081036200034857634e487b7160e01b600052602260045260246000fd5b50919050565b601f8211156200039e576000816000526020600020601f850160051c81016020861015620003795750805b601f850160051c820191505b818110156200039a5782815560010162000385565b5050505b505050565b81516001600160401b03811115620003bf57620003bf620002fc565b620003d781620003d0845462000312565b846200034e565b602080601f8311600181146200040f5760008415620003f65750858301515b600019600386901b1c1916600185901b1785556200039a565b600085815260208120601f198616915b8281101562000440578886015182559484019460019091019084016200041f565b50858210156200045f5787850151600019600388901b60f8161c191681555b5050505050600190811b01905550565b634e487b7160e01b600052601160045260246000fd5b600181815b80851115620004c6578160001904821115620004aa57620004aa6200046f565b80851615620004b857918102915b93841c93908002906200048a565b509250929050565b600082620004df575060016200057e565b81620004ee575060006200057e565b8160018114620005075760028114620005125762000532565b60019150506200057e565b60ff8411156200052657620005266200046f565b50506001821b6200057e565b5060208310610133831016604e8410600b841016171562000557575081810a6200057e565b62000563838362000485565b80600019048211156200057a576200057a6200046f565b0290505b92915050565b6000620002f560ff841683620004ce565b80820281158282048414176200057e576200057e6200046f565b808201808211156200057e576200057e6200046f565b6108c580620005d56000396000f3fe608060405234801561001057600080fd5b50600436106100cf5760003560e01c806370a082311161008c57806395d89b411161006657806395d89b41146101aa578063a9059cbb146101b2578063dd62ed3e146101c5578063f2fde38b146101fe57600080fd5b806370a082311461015e578063715018a6146101875780638da5cb5b1461018f57600080fd5b806306fdde03146100d4578063095ea7b3146100f257806318160ddd1461011557806323b872dd14610127578063313ce5671461013a57806340c10f1914610149575b600080fd5b6100dc610211565b6040516100e9919061070e565b60405180910390f35b610105610100366004610779565b6102a3565b60405190151581526020016100e9565b6002545b6040519081526020016100e9565b6101056101353660046107a3565b6102bd565b604051601281526020016100e9565b61015c610157366004610779565b6102e1565b005b61011961016c3660046107df565b6001600160a01b031660009081526020819052604090205490565b61015c6102f7565b6005546040516001600160a01b0390911681526020016100e9565b6100dc61030b565b6101056101c0366004610779565b61031a565b6101196101d3366004610801565b6001600160a01b03918216600090815260016020908152604080832093909416825291909152205490565b61015c61020c3660046107df565b610328565b60606003805461022090610834565b80601f016020809104026020016040519081016040528092919081815260200182805461024c90610834565b80156102995780601f1061026e57610100808354040283529160200191610299565b820191906000526020600020905b81548152906001019060200180831161027c57829003601f168201915b5050505050905090565b6000336102b181858561036b565b60019150505b92915050565b6000336102cb85828561037d565b6102d68585856103fb565b506001949350505050565b6102e961045a565b6102f38282610487565b5050565b6102ff61045a565b61030960006104bd565b565b60606004805461022090610834565b6000336102b18185856103fb565b61033061045a565b6001600160a01b03811661035f57604051631e4fbdf760e01b8152600060048201526024015b60405180910390fd5b610368816104bd565b50565b610378838383600161050f565b505050565b6001600160a01b0383811660009081526001602090815260408083209386168352929052205460001981146103f557818110156103e657604051637dc7a0d960e11b81526001600160a01b03841660048201526024810182905260448101839052606401610356565b6103f58484848403600061050f565b50505050565b6001600160a01b03831661042557604051634b637e8f60e11b815260006004820152602401610356565b6001600160a01b03821661044f5760405163ec442f0560e01b815260006004820152602401610356565b6103788383836105e4565b6005546001600160a01b031633146103095760405163118cdaa760e01b8152336004820152602401610356565b6001600160a01b0382166104b15760405163ec442f0560e01b815260006004820152602401610356565b6102f3600083836105e4565b600580546001600160a01b038381166001600160a01b0319831681179093556040519116919082907f8be0079c531659141344cd1fd0a4f28419497f9722a3daafe3b4186f6b6457e090600090a35050565b6001600160a01b0384166105395760405163e602df0560e01b815260006004820152602401610356565b6001600160a01b03831661056357604051634a1406b160e11b815260006004820152602401610356565b6001600160a01b03808516600090815260016020908152604080832093871683529290522082905580156103f557826001600160a01b0316846001600160a01b03167f8c5be1e5ebec7d5bd14f71427d1e84f3dd0314c0f7b2291e5b200ac8c7c3b925846040516105d691815260200190565b60405180910390a350505050565b6001600160a01b03831661060f578060026000828254610604919061086e565b909155506106819050565b6001600160a01b038316600090815260208190526040902054818110156106625760405163391434e360e21b81526001600160a01b03851660048201526024810182905260448101839052606401610356565b6001600160a01b03841660009081526020819052604090209082900390555b6001600160a01b03821661069d576002805482900390556106bc565b6001600160a01b03821660009081526020819052604090208054820190555b816001600160a01b0316836001600160a01b03167fddf252ad1be2c89b69c2b068fc378daa952ba7f163c4a11628f55a4df523b3ef8360405161070191815260200190565b60405180910390a3505050565b60006020808352835180602085015260005b8181101561073c57858101830151858201604001528201610720565b506000604082860101526040601f19601f8301168501019250505092915050565b80356001600160a01b038116811461077457600080fd5b919050565b6000806040838503121561078c57600080fd5b6107958361075d565b946020939093013593505050565b6000806000606084860312156107b857600080fd5b6107c18461075d565b92506107cf6020850161075d565b9150604084013590509250925092565b6000602082840312156107f157600080fd5b6107fa8261075d565b9392505050565b6000806040838503121561081457600080fd5b61081d8361075d565b915061082b6020840161075d565b90509250929050565b600181811c9082168061084857607f821691505b60208210810361086857634e487b7160e01b600052602260045260246000fd5b50919050565b808201808211156102b757634e487b7160e01b600052601160045260246000fdfea2646970667358221220d6b57600ea92e80496757927343342eac8992814f362b326cbe364d01b7ece0664736f6c63430008170033000000000000000000000000e2d3c55a61be30ce58324be5bd188f1beac06f58",
        "nonce": "0x26",
        "accessList": []
      },
      "additionalContracts": [],
      "isFixedGasLimit": false
    },
    {
      "hash": "0xf35d255071b3ca9d43aef4393b7e8ea0fcf6e8980656508e5ba158141c635184",
      "transactionType": "CREATE",
      "contractName": "ETHER",
      "contractAddress": "0xf5b011f57E66d809A1569Facad3679CD2dB32984",
      "function": null,
      "arguments": [
        "0xe2D3C55a61BE30ce58324Be5bd188F1bEAc06f58"
      ],
      "transaction": {
        "type": "0x02",
        "from": "0xe2d3c55a61be30ce58324be5bd188f1beac06f58",
        "gas": "0xd696d",
        "value": "0x0",
        "data": "0x60806040523480156200001157600080fd5b5060405162000e9038038062000e908339810160408190526200003491620002c0565b806040518060400160405280600581526020016422aa2422a960d91b8152506040518060400160405280600381526020016208aa8960eb1b815250816003908162000080919062000399565b5060046200008f828262000399565b5050506001600160a01b038116620000c257604051631e4fbdf760e01b8152600060048201526024015b60405180910390fd5b620000cd81620000fd565b50620000f633620000e16012600a6200057a565b620000f090620186a06200058b565b6200014f565b50620005bb565b600580546001600160a01b038381166001600160a01b0319831681179093556040519116919082907f8be0079c531659141344cd1fd0a4f28419497f9722a3daafe3b4186f6b6457e090600090a35050565b6001600160a01b0382166200017b5760405163ec442f0560e01b815260006004820152602401620000b9565b62000189600083836200018d565b5050565b6001600160a01b038316620001bc578060026000828254620001b09190620005a5565b90915550620002309050565b6001600160a01b03831660009081526020819052604090205481811015620002115760405163391434e360e21b81526001600160a01b03851660048201526024810182905260448101839052606401620000b9565b6001600160a01b03841660009081526020819052604090209082900390555b6001600160a01b0382166200024e576002805482900390556200026d565b6001600160a01b03821660009081526020819052604090208054820190555b816001600160a01b0316836001600160a01b03167fddf252ad1be2c89b69c2b068fc378daa952ba7f163c4a11628f55a4df523b3ef83604051620002b391815260200190565b60405180910390a3505050565b600060208284031215620002d357600080fd5b81516001600160a01b0381168114620002eb57600080fd5b9392505050565b634e487b7160e01b600052604160045260246000fd5b600181811c908216806200031d57607f821691505b6020821081036200033e57634e487b7160e01b600052602260045260246000fd5b50919050565b601f82111562000394576000816000526020600020601f850160051c810160208610156200036f5750805b601f850160051c820191505b8181101562000390578281556001016200037b565b5050505b505050565b81516001600160401b03811115620003b557620003b5620002f2565b620003cd81620003c6845462000308565b8462000344565b602080601f831160018114620004055760008415620003ec5750858301515b600019600386901b1c1916600185901b17855562000390565b600085815260208120601f198616915b82811015620004365788860151825594840194600190910190840162000415565b5085821015620004555787850151600019600388901b60f8161c191681555b5050505050600190811b01905550565b634e487b7160e01b600052601160045260246000fd5b600181815b80851115620004bc578160001904821115620004a057620004a062000465565b80851615620004ae57918102915b93841c939080029062000480565b509250929050565b600082620004d55750600162000574565b81620004e45750600062000574565b8160018114620004fd5760028114620005085762000528565b600191505062000574565b60ff8411156200051c576200051c62000465565b50506001821b62000574565b5060208310610133831016604e8410600b84101617156200054d575081810a62000574565b6200055983836200047b565b806000190482111562000570576200057062000465565b0290505b92915050565b6000620002eb60ff841683620004c4565b808202811582820484141762000574576200057462000465565b8082018082111562000574576200057462000465565b6108c580620005cb6000396000f3fe608060405234801561001057600080fd5b50600436106100cf5760003560e01c806370a082311161008c57806395d89b411161006657806395d89b41146101aa578063a9059cbb146101b2578063dd62ed3e146101c5578063f2fde38b146101fe57600080fd5b806370a082311461015e578063715018a6146101875780638da5cb5b1461018f57600080fd5b806306fdde03146100d4578063095ea7b3146100f257806318160ddd1461011557806323b872dd14610127578063313ce5671461013a57806340c10f1914610149575b600080fd5b6100dc610211565b6040516100e9919061070e565b60405180910390f35b610105610100366004610779565b6102a3565b60405190151581526020016100e9565b6002545b6040519081526020016100e9565b6101056101353660046107a3565b6102bd565b604051601281526020016100e9565b61015c610157366004610779565b6102e1565b005b61011961016c3660046107df565b6001600160a01b031660009081526020819052604090205490565b61015c6102f7565b6005546040516001600160a01b0390911681526020016100e9565b6100dc61030b565b6101056101c0366004610779565b61031a565b6101196101d3366004610801565b6001600160a01b03918216600090815260016020908152604080832093909416825291909152205490565b61015c61020c3660046107df565b610328565b60606003805461022090610834565b80601f016020809104026020016040519081016040528092919081815260200182805461024c90610834565b80156102995780601f1061026e57610100808354040283529160200191610299565b820191906000526020600020905b81548152906001019060200180831161027c57829003601f168201915b5050505050905090565b6000336102b181858561036b565b60019150505b92915050565b6000336102cb85828561037d565b6102d68585856103fb565b506001949350505050565b6102e961045a565b6102f38282610487565b5050565b6102ff61045a565b61030960006104bd565b565b60606004805461022090610834565b6000336102b18185856103fb565b61033061045a565b6001600160a01b03811661035f57604051631e4fbdf760e01b8152600060048201526024015b60405180910390fd5b610368816104bd565b50565b610378838383600161050f565b505050565b6001600160a01b0383811660009081526001602090815260408083209386168352929052205460001981146103f557818110156103e657604051637dc7a0d960e11b81526001600160a01b03841660048201526024810182905260448101839052606401610356565b6103f58484848403600061050f565b50505050565b6001600160a01b03831661042557604051634b637e8f60e11b815260006004820152602401610356565b6001600160a01b03821661044f5760405163ec442f0560e01b815260006004820152602401610356565b6103788383836105e4565b6005546001600160a01b031633146103095760405163118cdaa760e01b8152336004820152602401610356565b6001600160a01b0382166104b15760405163ec442f0560e01b815260006004820152602401610356565b6102f3600083836105e4565b600580546001600160a01b038381166001600160a01b0319831681179093556040519116919082907f8be0079c531659141344cd1fd0a4f28419497f9722a3daafe3b4186f6b6457e090600090a35050565b6001600160a01b0384166105395760405163e602df0560e01b815260006004820152602401610356565b6001600160a01b03831661056357604051634a1406b160e11b815260006004820152602401610356565b6001600160a01b03808516600090815260016020908152604080832093871683529290522082905580156103f557826001600160a01b0316846001600160a01b03167f8c5be1e5ebec7d5bd14f71427d1e84f3dd0314c0f7b2291e5b200ac8c7c3b925846040516105d691815260200190565b60405180910390a350505050565b6001600160a01b03831661060f578060026000828254610604919061086e565b909155506106819050565b6001600160a01b038316600090815260208190526040902054818110156106625760405163391434e360e21b81526001600160a01b03851660048201526024810182905260448101839052606401610356565b6001600160a01b03841660009081526020819052604090209082900390555b6001600160a01b03821661069d576002805482900390556106bc565b6001600160a01b03821660009081526020819052604090208054820190555b816001600160a01b0316836001600160a01b03167fddf252ad1be2c89b69c2b068fc378daa952ba7f163c4a11628f55a4df523b3ef8360405161070191815260200190565b60405180910390a3505050565b60006020808352835180602085015260005b8181101561073c57858101830151858201604001528201610720565b506000604082860101526040601f19601f8301168501019250505092915050565b80356001600160a01b038116811461077457600080fd5b919050565b6000806040838503121561078c57600080fd5b6107958361075d565b946020939093013593505050565b6000806000606084860312156107b857600080fd5b6107c18461075d565b92506107cf6020850161075d565b9150604084013590509250925092565b6000602082840312156107f157600080fd5b6107fa8261075d565b9392505050565b6000806040838503121561081457600080fd5b61081d8361075d565b915061082b6020840161075d565b90509250929050565b600181811c9082168061084857607f821691505b60208210810361086857634e487b7160e01b600052602260045260246000fd5b50919050565b808201808211156102b757634e487b7160e01b600052601160045260246000fdfea2646970667358221220d9e6ef916ab1fbc339ba724d1a2ec6168a1b93f0240825da0c5ee0e0bc81a8f964736f6c63430008170033000000000000000000000000e2d3c55a61be30ce58324be5bd188f1beac06f58",
        "nonce": "0x27",
        "accessList": []
      },
      "additionalContracts": [],
      "isFixedGasLimit": false
    },
    {
      "hash": "0xe478a7dd42ad5ae68c93a17becde24b6c5ef33a2db8b2f828002907f2f6f27ce",
      "transactionType": "CALL",
      "contractName": "USDC",
      "contractAddress": "0x75025D2470BC8a4E59Fd53477770F3dAB4d77942",
      "function": "transfer(address,uint256)",
      "arguments": [
        "0xe2D3C55a61BE30ce58324Be5bd188F1bEAc06f58",
        "100000000000000000000000"
      ],
      "transaction": {
        "type": "0x02",
        "from": "0xe2d3c55a61be30ce58324be5bd188f1beac06f58",
        "to": "0x75025d2470bc8a4e59fd53477770f3dab4d77942",
        "gas": "0x99cd",
        "value": "0x0",
        "data": "0xa9059cbb000000000000000000000000e2d3c55a61be30ce58324be5bd188f1beac06f5800000000000000000000000000000000000000000000152d02c7e14af6800000",
        "nonce": "0x28",
        "accessList": []
      },
      "additionalContracts": [],
      "isFixedGasLimit": false
    },
    {
      "hash": "0xdeff896ab302a31d505ad04c90dd6deb875ef52cc76335bedbd74cc1f80d53fe",
      "transactionType": "CALL",
      "contractName": "ETHER",
      "contractAddress": "0xf5b011f57E66d809A1569Facad3679CD2dB32984",
      "function": "transfer(address,uint256)",
      "arguments": [
        "0xe2D3C55a61BE30ce58324Be5bd188F1bEAc06f58",
        "100000000000000000000000"
      ],
      "transaction": {
        "type": "0x02",
        "from": "0xe2d3c55a61be30ce58324be5bd188f1beac06f58",
        "to": "0xf5b011f57e66d809a1569facad3679cd2db32984",
        "gas": "0x99cd",
        "value": "0x0",
        "data": "0xa9059cbb000000000000000000000000e2d3c55a61be30ce58324be5bd188f1beac06f5800000000000000000000000000000000000000000000152d02c7e14af6800000",
        "nonce": "0x29",
        "accessList": []
      },
      "additionalContracts": [],
      "isFixedGasLimit": false
    },
    {
      "hash": "0x6f4f834204db71e8e78fcbd55d43cdbc1fd99f655c01659c9020e07fc3fa8b17",
      "transactionType": "CREATE",
      "contractName": "secureDEX",
      "contractAddress": "0x531BD029c3cD1a111f9dE205890469C2C18f69dC",
      "function": null,
      "arguments": [
        "0xe2D3C55a61BE30ce58324Be5bd188F1bEAc06f58"
      ],
      "transaction": {
        "type": "0x02",
        "from": "0xe2d3c55a61be30ce58324be5bd188f1beac06f58",
        "gas": "0x190dcc",
        "value": "0x0",
        "data": "0x608060405234801561001057600080fd5b506040516115ab3803806115ab83398101604081905261002f91610062565b60048054336001600160a01b031991821617909155600580549091166001600160a01b0392909216919091179055610092565b60006020828403121561007457600080fd5b81516001600160a01b038116811461008b57600080fd5b9392505050565b61150a806100a16000396000f3fe608060405234801561001057600080fd5b50600436106100cf5760003560e01c80638322fff21161008c578063c87b502e11610066578063c87b502e146101b1578063d004f0f7146101ba578063e3433615146101cd578063f851a440146101e057600080fd5b80638322fff21461017857806389a302711461018b5780639cd441da1461019e57600080fd5b8063100af203146100d457806323f5c02d146100f057806346a7dadc1461011b57806362b80857146101305780637084d58b1461014357806380eb9be614610156575b600080fd5b6100dd60035481565b6040519081526020015b60405180910390f35b600554610103906001600160a01b031681565b6040516001600160a01b0390911681526020016100e7565b61012e6101293660046112aa565b6101f3565b005b61012e61013e3660046112cc565b610248565b6100dd6101513660046112ff565b610306565b61015e610a32565b60408051601b9390930b83526020830191909152016100e7565b600154610103906001600160a01b031681565b600054610103906001600160a01b031681565b61012e6101ac366004611338565b610ab0565b6100dd60025481565b6100dd6101c836600461135a565b610d0b565b61012e6101db3660046112cc565b611197565b600454610103906001600160a01b031681565b6004546001600160a01b031633146102265760405162461bcd60e51b815260040161021d90611384565b60405180910390fd5b600580546001600160a01b0319166001600160a01b0392909216919091179055565b6004546001600160a01b031633146102725760405162461bcd60e51b815260040161021d90611384565b6001600160a01b0382161580159061029257506001600160a01b03811615155b6102d85760405162461bcd60e51b8152602060048201526017602482015276496e76616c696420746f6b656e2061646472657373657360481b604482015260640161021d565b600080546001600160a01b039384166001600160a01b03199182161790915560018054929093169116179055565b600080546001600160a01b038681169116148061033057506001546001600160a01b038681169116145b61037c5760405162461bcd60e51b815260206004820152601e60248201527f496e76616c696420746f6b656e206164647265737320666f7220737761700000604482015260640161021d565b6001821015801561038e5750600a8211155b6104385760405162461bcd60e51b815260206004820152606960248201527f536c697070616765206f7574206f662072616e67653b206d757374206265206260448201527f65747765656e20312520616e642031302520286578707265737365642061732060648201527f6e756d6265722066726f6d203120746f20313020696e20313820646563696d616084820152686c20706c616365732960b81b60a482015260c40161021d565b600554604080516315f789a960e21b815281516000936001600160a01b0316926357de26a492600480820193918290030181865afa15801561047e573d6000803e3d6000fd5b505050506040513d601f19601f820116820180604052508101906104a291906113ca565b509050600081601b0b136104f85760405162461bcd60e51b815260206004820152601a60248201527f44617461206665656420707269636520697320696e76616c6964000000000000604482015260640161021d565b601b81900b6000606461050b8682611429565b6105159084611442565b61051f9190611459565b90506000606461052f878261147b565b6105399085611442565b6105439190611459565b6000549091506001600160a01b03908116908a16036107a8576002548811156105ae5760405162461bcd60e51b815260206004820152601f60248201527f496e73756666696369656e74206c697175696469747920666f72205553444300604482015260640161021d565b60006002546003546105c09190611459565b90508181101580156105d25750828111155b6106175760405162461bcd60e51b815260206004820152601660248201527514db1a5c1c1859d948195e18d959591cc81b1a5b5a5d60521b604482015260640161021d565b600254600354610627908b611442565b6106319190611459565b9550878610156106835760405162461bcd60e51b815260206004820152601a60248201527f496e73756666696369656e74206f757470757420616d6f756e74000000000000604482015260640161021d565b6000546040516323b872dd60e01b81526001600160a01b03909116906323b872dd906106b790339030908e9060040161148e565b6020604051808303816000875af11580156106d6573d6000803e3d6000fd5b505050506040513d601f19601f820116820180604052508101906106fa91906114b2565b5060015460405163a9059cbb60e01b8152336004820152602481018890526001600160a01b039091169063a9059cbb906044016020604051808303816000875af115801561074c573d6000803e3d6000fd5b505050506040513d601f19601f8201168201806040525081019061077091906114b2565b5088600260008282546107839190611429565b92505081905550856003600082825461079c919061147b565b909155506109dc915050565b6003548811156107fa5760405162461bcd60e51b815260206004820152601e60248201527f496e73756666696369656e74206c697175696469747920666f72204554480000604482015260640161021d565b8281811080159061080b5750828111155b6108505760405162461bcd60e51b815260206004820152601660248201527514db1a5c1c1859d948195e18d959591cc81b1a5b5a5d60521b604482015260640161021d565b600354600254610860908b611442565b61086a9190611459565b9550878610156108bc5760405162461bcd60e51b815260206004820152601a60248201527f496e73756666696369656e74206f757470757420616d6f756e74000000000000604482015260640161021d565b6001546040516323b872dd60e01b81526001600160a01b03909116906323b872dd906108f090339030908e9060040161148e565b6020604051808303816000875af115801561090f573d6000803e3d6000fd5b505050506040513d601f19601f8201168201806040525081019061093391906114b2565b5060005460405163a9059cbb60e01b8152336004820152602481018890526001600160a01b039091169063a9059cbb906044016020604051808303816000875af1158015610985573d6000803e3d6000fd5b505050506040513d601f19601f820116820180604052508101906109a991906114b2565b5088600360008282546109bc9190611429565b9250508190555085600260008282546109d5919061147b565b9091555050505b604080516001600160a01b038b168152602081018a90529081018690527f18704ae982dcd24a1beeeed3ecf045ab0520d7b7519b97adf3e4f40bf7efe3399060600160405180910390a150505050949350505050565b600554604080516315f789a960e21b8152815160009384936001600160a01b03909116926357de26a492600480830193928290030181865afa158015610a7c573d6000803e3d6000fd5b505050506040513d601f19601f82011682018060405250810190610aa091906113ca565b909363ffffffff90911692509050565b6000546001600160a01b031615801590610ad457506001546001600160a01b031615155b610b175760405162461bcd60e51b8152602060048201526014602482015273141bdbdb081b9bdd081a5b9a5d1a585b1a5e995960621b604482015260640161021d565b6000546040516323b872dd60e01b81526001600160a01b03909116906323b872dd90610b4b9033903090879060040161148e565b6020604051808303816000875af1158015610b6a573d6000803e3d6000fd5b505050506040513d601f19601f82011682018060405250810190610b8e91906114b2565b610bda5760405162461bcd60e51b815260206004820152601a60248201527f4661696c656420746f207472616e7366657220546f6b656e2041000000000000604482015260640161021d565b6001546040516323b872dd60e01b81526001600160a01b03909116906323b872dd90610c0e9033903090869060040161148e565b6020604051808303816000875af1158015610c2d573d6000803e3d6000fd5b505050506040513d601f19601f82011682018060405250810190610c5191906114b2565b610c9d5760405162461bcd60e51b815260206004820152601a60248201527f4661696c656420746f207472616e7366657220546f6b656e2042000000000000604482015260640161021d565b8160026000828254610caf9190611429565b925050819055508060036000828254610cc89190611429565b909155505060408051838152602081018390527f38f8a0c92f4c5b0b6877f878cb4c0c8d348a47b76d716c8e78f425043df9515b91015b60405180910390a15050565b600080546001600160a01b031615801590610d3057506001546001600160a01b031615155b610d735760405162461bcd60e51b8152602060048201526014602482015273141bdbdb081b9bdd081a5b9a5d1a585b1a5e995960621b604482015260640161021d565b6000546001600160a01b0384811691161480610d9c57506001546001600160a01b038481169116145b610de85760405162461bcd60e51b815260206004820152601e60248201527f496e76616c696420746f6b656e206164647265737320666f7220737761700000604482015260640161021d565b6000546001600160a01b0390811690841603610fa557600254821115610e5b5760405162461bcd60e51b815260206004820152602260248201527f496e73756666696369656e74206c697175696469747920666f7220546f6b656e604482015261204160f01b606482015260840161021d565b81600254610e699190611429565b600354610e769084611442565b610e809190611459565b6000546040516323b872dd60e01b81529192506001600160a01b0316906323b872dd90610eb59033903090879060040161148e565b6020604051808303816000875af1158015610ed4573d6000803e3d6000fd5b505050506040513d601f19601f82011682018060405250810190610ef891906114b2565b5060015460405163a9059cbb60e01b8152336004820152602481018390526001600160a01b039091169063a9059cbb906044016020604051808303816000875af1158015610f4a573d6000803e3d6000fd5b505050506040513d601f19601f82011682018060405250810190610f6e91906114b2565b508160026000828254610f819190611429565b925050819055508060036000828254610f9a919061147b565b909155506111479050565b6003548211156110025760405162461bcd60e51b815260206004820152602260248201527f496e73756666696369656e74206c697175696469747920666f7220546f6b656e604482015261102160f11b606482015260840161021d565b816003546110109190611429565b60025461101d9084611442565b6110279190611459565b6001546040516323b872dd60e01b81529192506001600160a01b0316906323b872dd9061105c9033903090879060040161148e565b6020604051808303816000875af115801561107b573d6000803e3d6000fd5b505050506040513d601f19601f8201168201806040525081019061109f91906114b2565b5060005460405163a9059cbb60e01b8152336004820152602481018390526001600160a01b039091169063a9059cbb906044016020604051808303816000875af11580156110f1573d6000803e3d6000fd5b505050506040513d601f19601f8201168201806040525081019061111591906114b2565b5081600360008282546111289190611429565b925050819055508060026000828254611141919061147b565b90915550505b604080516001600160a01b0385168152602081018490529081018290527f18704ae982dcd24a1beeeed3ecf045ab0520d7b7519b97adf3e4f40bf7efe3399060600160405180910390a192915050565b6004546001600160a01b031633146111c15760405162461bcd60e51b815260040161021d90611384565b6001600160a01b038216158015906111e157506001600160a01b03811615155b6112275760405162461bcd60e51b8152602060048201526017602482015276496e76616c696420746f6b656e2061646472657373657360481b604482015260640161021d565b600080546001600160a01b038481166001600160a01b03199283168117909355600180549185169190921681179091556040805192835260208301919091527f4f2ce4e40f623ca765fc0167a25cb7842ceaafb8d82d3dec26ca0d0e0d2d48969101610cff565b80356001600160a01b03811681146112a557600080fd5b919050565b6000602082840312156112bc57600080fd5b6112c58261128e565b9392505050565b600080604083850312156112df57600080fd5b6112e88361128e565b91506112f66020840161128e565b90509250929050565b6000806000806080858703121561131557600080fd5b61131e8561128e565b966020860135965060408601359560600135945092505050565b6000806040838503121561134b57600080fd5b50508035926020909101359150565b6000806040838503121561136d57600080fd5b6113768361128e565b946020939093013593505050565b60208082526026908201527f4f6e6c79207468652061646d696e2063616e20706572666f726d20746869732060408201526530b1ba34b7b760d11b606082015260800190565b600080604083850312156113dd57600080fd5b825180601b0b81146113ee57600080fd5b602084015190925063ffffffff8116811461140857600080fd5b809150509250929050565b634e487b7160e01b600052601160045260246000fd5b8082018082111561143c5761143c611413565b92915050565b808202811582820484141761143c5761143c611413565b60008261147657634e487b7160e01b600052601260045260246000fd5b500490565b8181038181111561143c5761143c611413565b6001600160a01b039384168152919092166020820152604081019190915260600190565b6000602082840312156114c457600080fd5b815180151581146112c557600080fdfea2646970667358221220195d1f6f0427c14a67c5cbffb5bb1ead962b58e3761fe8551a0989f10b30d8fb64736f6c63430008170033000000000000000000000000e2d3c55a61be30ce58324be5bd188f1beac06f58",
        "nonce": "0x2a",
        "accessList": []
      },
      "additionalContracts": [],
      "isFixedGasLimit": false
    },
    {
      "hash": "0xc0d9395d2930d1caf34a74c4874ca383e6b91926b1d3876c2883f302bb51b5cb",
      "transactionType": "CALL",
      "contractName": "USDC",
      "contractAddress": "0x75025D2470BC8a4E59Fd53477770F3dAB4d77942",
      "function": "approve(address,uint256)",
      "arguments": [
        "0x531BD029c3cD1a111f9dE205890469C2C18f69dC",
        "100000000000000000000000"
      ],
      "transaction": {
        "type": "0x02",
        "from": "0xe2d3c55a61be30ce58324be5bd188f1beac06f58",
        "to": "0x75025d2470bc8a4e59fd53477770f3dab4d77942",
        "gas": "0x1090c",
        "value": "0x0",
        "data": "0x095ea7b3000000000000000000000000531bd029c3cd1a111f9de205890469c2c18f69dc00000000000000000000000000000000000000000000152d02c7e14af6800000",
        "nonce": "0x2b",
        "accessList": []
      },
      "additionalContracts": [],
      "isFixedGasLimit": false
    },
    {
      "hash": "0x616ba191e38740dde45cf7c09cdc4e0ac73e391add38773eddcca866b4f0ec6a",
      "transactionType": "CALL",
      "contractName": "ETHER",
      "contractAddress": "0xf5b011f57E66d809A1569Facad3679CD2dB32984",
      "function": "approve(address,uint256)",
      "arguments": [
        "0x531BD029c3cD1a111f9dE205890469C2C18f69dC",
        "100000000000000000000000"
      ],
      "transaction": {
        "type": "0x02",
        "from": "0xe2d3c55a61be30ce58324be5bd188f1beac06f58",
        "to": "0xf5b011f57e66d809a1569facad3679cd2db32984",
        "gas": "0x1090c",
        "value": "0x0",
        "data": "0x095ea7b3000000000000000000000000531bd029c3cd1a111f9de205890469c2c18f69dc00000000000000000000000000000000000000000000152d02c7e14af6800000",
        "nonce": "0x2c",
        "accessList": []
      },
      "additionalContracts": [],
      "isFixedGasLimit": false
    },
    {
      "hash": "0x6058e53b817328a894276121150af7a09348ea0fcfc5305044d3d0ecd39ed7d5",
      "transactionType": "CALL",
      "contractName": "secureDEX",
      "contractAddress": "0x531BD029c3cD1a111f9dE205890469C2C18f69dC",
      "function": "createPool(address,address)",
      "arguments": [
        "0x75025D2470BC8a4E59Fd53477770F3dAB4d77942",
        "0xf5b011f57E66d809A1569Facad3679CD2dB32984"
      ],
      "transaction": {
        "type": "0x02",
        "from": "0xe2d3c55a61be30ce58324be5bd188f1beac06f58",
        "to": "0x531bd029c3cd1a111f9de205890469c2c18f69dc",
        "gas": "0x190d2",
        "value": "0x0",
        "data": "0xe343361500000000000000000000000075025d2470bc8a4e59fd53477770f3dab4d77942000000000000000000000000f5b011f57e66d809a1569facad3679cd2db32984",
        "nonce": "0x2d",
        "accessList": []
      },
      "additionalContracts": [],
      "isFixedGasLimit": false
    },
    {
      "hash": "0x7b72228a1fbeaa3d5f7c3e1285bf98a3da2fc5e2b074638f1f1b04ecf7490766",
      "transactionType": "CALL",
      "contractName": "secureDEX",
      "contractAddress": "0x531BD029c3cD1a111f9dE205890469C2C18f69dC",
      "function": "addLiquidity(uint256,uint256)",
      "arguments": [
        "10000000000000000000",
        "19617225000000000000000"
      ],
      "transaction": {
        "type": "0x02",
        "from": "0xe2d3c55a61be30ce58324be5bd188f1beac06f58",
        "to": "0x531bd029c3cd1a111f9de205890469c2c18f69dc",
        "gas": "0x355b2",
        "value": "0x0",
        "data": "0x9cd441da0000000000000000000000000000000000000000000000008ac7230489e8000000000000000000000000000000000000000000000000042773af98fcc85a8000",
        "nonce": "0x2e",
        "accessList": []
      },
      "additionalContracts": [],
      "isFixedGasLimit": false
    }
  ],
  "receipts": [
    {
      "transactionHash": "0xeca3b28bd607f507162099d6e068c8f80d8b91aca386244cf99194e42fd92169",
      "transactionIndex": "0x1",
      "blockHash": "0x9ee4c59f528873a1908163f806811ff8fc512ad0aa531169ffc0db4eff4470bc",
      "blockNumber": "0x2899f15",
      "from": "0xe2D3C55a61BE30ce58324Be5bd188F1bEAc06f58",
      "to": null,
      "cumulativeGasUsed": "0xe02e9",
      "gasUsed": "0xa52a5",
      "contractAddress": "0x75025D2470BC8a4E59Fd53477770F3dAB4d77942",
      "logs": [
        {
          "address": "0x75025D2470BC8a4E59Fd53477770F3dAB4d77942",
          "topics": [
            "0x8be0079c531659141344cd1fd0a4f28419497f9722a3daafe3b4186f6b6457e0",
            "0x0000000000000000000000000000000000000000000000000000000000000000",
            "0x000000000000000000000000e2d3c55a61be30ce58324be5bd188f1beac06f58"
          ],
          "data": "0x",
          "blockHash": "0x9ee4c59f528873a1908163f806811ff8fc512ad0aa531169ffc0db4eff4470bc",
          "blockNumber": "0x2899f15",
          "transactionHash": "0xeca3b28bd607f507162099d6e068c8f80d8b91aca386244cf99194e42fd92169",
          "transactionIndex": "0x1",
          "logIndex": "0x7",
          "removed": false
        },
        {
          "address": "0x75025D2470BC8a4E59Fd53477770F3dAB4d77942",
          "topics": [
            "0xddf252ad1be2c89b69c2b068fc378daa952ba7f163c4a11628f55a4df523b3ef",
            "0x0000000000000000000000000000000000000000000000000000000000000000",
            "0x000000000000000000000000e2d3c55a61be30ce58324be5bd188f1beac06f58"
          ],
          "data": "0x00000000000000000000000000000000000000000000152d02c7e14af6800000",
          "blockHash": "0x9ee4c59f528873a1908163f806811ff8fc512ad0aa531169ffc0db4eff4470bc",
          "blockNumber": "0x2899f15",
          "transactionHash": "0xeca3b28bd607f507162099d6e068c8f80d8b91aca386244cf99194e42fd92169",
          "transactionIndex": "0x1",
          "logIndex": "0x8",
          "removed": false
        },
        {
          "address": "0x0000000000000000000000000000000000001010",
          "topics": [
            "0x4dfe1bbbcf077ddc3e01291eea2d5c70c2b422b415d95645b9adcfd678cb1d63",
            "0x0000000000000000000000000000000000000000000000000000000000001010",
            "0x000000000000000000000000e2d3c55a61be30ce58324be5bd188f1beac06f58",
            "0x000000000000000000000000c26880a0af2ea0c7e8130e6ec47af756465452e8"
          ],
          "data": "0x0000000000000000000000000000000000000000000000000003b30658fa8d370000000000000000000000000000000000000000000000000cd68710413b3ec10000000000000000000000000000000000000000000022a2b6c0da7e6557736c0000000000000000000000000000000000000000000000000cd2d409e840b18a0000000000000000000000000000000000000000000022a2b6c48d84be5200a3",
          "blockHash": "0x9ee4c59f528873a1908163f806811ff8fc512ad0aa531169ffc0db4eff4470bc",
          "blockNumber": "0x2899f15",
          "transactionHash": "0xeca3b28bd607f507162099d6e068c8f80d8b91aca386244cf99194e42fd92169",
          "transactionIndex": "0x1",
          "logIndex": "0x9",
          "removed": false
        }
      ],
      "status": "0x1",
      "logsBloom": "0x00000000000000020000000000000000000000000000000000800000000000000000000000000000000000000400000000008000000000000000000000000000000000000000000000000008000000800001000000000000000100000000000000000000020000000000000000000800000000000000000080000010000000400000000000000088008000000000000000000000000000000000000000000000200000000000000020000000000000000001000000000000000000000000004000000002000000000001000000000000000000000000000800100000000020000000000000000000000020000000000000000000000000000000000000100000",
      "type": "0x2",
      "effectiveGasPrice": "0x5bbda5ba"
    },
    {
      "transactionHash": "0xf35d255071b3ca9d43aef4393b7e8ea0fcf6e8980656508e5ba158141c635184",
      "transactionIndex": "0x2",
      "blockHash": "0x9ee4c59f528873a1908163f806811ff8fc512ad0aa531169ffc0db4eff4470bc",
      "blockNumber": "0x2899f15",
      "from": "0xe2D3C55a61BE30ce58324Be5bd188F1bEAc06f58",
      "to": null,
      "cumulativeGasUsed": "0x1854ee",
      "gasUsed": "0xa5205",
      "contractAddress": "0xf5b011f57E66d809A1569Facad3679CD2dB32984",
      "logs": [
        {
          "address": "0xf5b011f57E66d809A1569Facad3679CD2dB32984",
          "topics": [
            "0x8be0079c531659141344cd1fd0a4f28419497f9722a3daafe3b4186f6b6457e0",
            "0x0000000000000000000000000000000000000000000000000000000000000000",
            "0x000000000000000000000000e2d3c55a61be30ce58324be5bd188f1beac06f58"
          ],
          "data": "0x",
          "blockHash": "0x9ee4c59f528873a1908163f806811ff8fc512ad0aa531169ffc0db4eff4470bc",
          "blockNumber": "0x2899f15",
          "transactionHash": "0xf35d255071b3ca9d43aef4393b7e8ea0fcf6e8980656508e5ba158141c635184",
          "transactionIndex": "0x2",
          "logIndex": "0xa",
          "removed": false
        },
        {
          "address": "0xf5b011f57E66d809A1569Facad3679CD2dB32984",
          "topics": [
            "0xddf252ad1be2c89b69c2b068fc378daa952ba7f163c4a11628f55a4df523b3ef",
            "0x0000000000000000000000000000000000000000000000000000000000000000",
            "0x000000000000000000000000e2d3c55a61be30ce58324be5bd188f1beac06f58"
          ],
          "data": "0x00000000000000000000000000000000000000000000152d02c7e14af6800000",
          "blockHash": "0x9ee4c59f528873a1908163f806811ff8fc512ad0aa531169ffc0db4eff4470bc",
          "blockNumber": "0x2899f15",
          "transactionHash": "0xf35d255071b3ca9d43aef4393b7e8ea0fcf6e8980656508e5ba158141c635184",
          "transactionIndex": "0x2",
          "logIndex": "0xb",
          "removed": false
        },
        {
          "address": "0x0000000000000000000000000000000000001010",
          "topics": [
            "0x4dfe1bbbcf077ddc3e01291eea2d5c70c2b422b415d95645b9adcfd678cb1d63",
            "0x0000000000000000000000000000000000000000000000000000000000001010",
            "0x000000000000000000000000e2d3c55a61be30ce58324be5bd188f1beac06f58",
            "0x000000000000000000000000c26880a0af2ea0c7e8130e6ec47af756465452e8"
          ],
          "data": "0x0000000000000000000000000000000000000000000000000003b2cd027302570000000000000000000000000000000000000000000000000cd2d409e7a5d9df0000000000000000000000000000000000000000000022a2b6c48d84be5200a30000000000000000000000000000000000000000000000000ccf213ce532d7880000000000000000000000000000000000000000000022a2b6c84051c0c502fa",
          "blockHash": "0x9ee4c59f528873a1908163f806811ff8fc512ad0aa531169ffc0db4eff4470bc",
          "blockNumber": "0x2899f15",
          "transactionHash": "0xf35d255071b3ca9d43aef4393b7e8ea0fcf6e8980656508e5ba158141c635184",
          "transactionIndex": "0x2",
          "logIndex": "0xc",
          "removed": false
        }
      ],
      "status": "0x1",
      "logsBloom": "0x00000000000000020000000000000000000000000000000000800000000000000001000000000000000000000000000000008000000000000000000000000000000000000010000000000008000000800001000000000000000100000000000000000000020000000000000000000800000000000000000080000010000000400000000000000088008000000000000000000000000000000000000000000000200000000000000020000000000000000001000000000000000000000000024000000002000000000001000000000000000000000000000000100000000020000000000000000000000000000000000000000000000000000000000000100000",
      "type": "0x2",
      "effectiveGasPrice": "0x5bbda5ba"
    },
    {
      "transactionHash": "0xe478a7dd42ad5ae68c93a17becde24b6c5ef33a2db8b2f828002907f2f6f27ce",
      "transactionIndex": "0x3",
      "blockHash": "0x9ee4c59f528873a1908163f806811ff8fc512ad0aa531169ffc0db4eff4470bc",
      "blockNumber": "0x2899f15",
      "from": "0xe2D3C55a61BE30ce58324Be5bd188F1bEAc06f58",
      "to": "0x75025D2470BC8a4E59Fd53477770F3dAB4d77942",
      "cumulativeGasUsed": "0x18be18",
      "gasUsed": "0x692a",
      "contractAddress": null,
      "logs": [
        {
          "address": "0x75025D2470BC8a4E59Fd53477770F3dAB4d77942",
          "topics": [
            "0xddf252ad1be2c89b69c2b068fc378daa952ba7f163c4a11628f55a4df523b3ef",
            "0x000000000000000000000000e2d3c55a61be30ce58324be5bd188f1beac06f58",
            "0x000000000000000000000000e2d3c55a61be30ce58324be5bd188f1beac06f58"
          ],
          "data": "0x00000000000000000000000000000000000000000000152d02c7e14af6800000",
          "blockHash": "0x9ee4c59f528873a1908163f806811ff8fc512ad0aa531169ffc0db4eff4470bc",
          "blockNumber": "0x2899f15",
          "transactionHash": "0xe478a7dd42ad5ae68c93a17becde24b6c5ef33a2db8b2f828002907f2f6f27ce",
          "transactionIndex": "0x3",
          "logIndex": "0xd",
          "removed": false
        },
        {
          "address": "0x0000000000000000000000000000000000001010",
          "topics": [
            "0x4dfe1bbbcf077ddc3e01291eea2d5c70c2b422b415d95645b9adcfd678cb1d63",
            "0x0000000000000000000000000000000000000000000000000000000000001010",
            "0x000000000000000000000000e2d3c55a61be30ce58324be5bd188f1beac06f58",
            "0x000000000000000000000000c26880a0af2ea0c7e8130e6ec47af756465452e8"
          ],
          "data": "0x000000000000000000000000000000000000000000000000000025afd610510e0000000000000000000000000000000000000000000000000ccf213ce498093d0000000000000000000000000000000000000000000022a2b6c84051c0c502fa0000000000000000000000000000000000000000000000000ccefb8d0e87b82f0000000000000000000000000000000000000000000022a2b6c8660196d55408",
          "blockHash": "0x9ee4c59f528873a1908163f806811ff8fc512ad0aa531169ffc0db4eff4470bc",
          "blockNumber": "0x2899f15",
          "transactionHash": "0xe478a7dd42ad5ae68c93a17becde24b6c5ef33a2db8b2f828002907f2f6f27ce",
          "transactionIndex": "0x3",
          "logIndex": "0xe",
          "removed": false
        }
      ],
      "status": "0x1",
      "logsBloom": "0x00000000000000020000000000000000000000000000000000000000000000000000000000000000000000000400000000008000000000000000000000000000000000000000000000000008000000800000000000000000000100000000000000000000000000000000000000000000000000000000000080000010000000000000000000000088008000000000000000000000000000000000000000000000200000000000000020000000000000000001000000000000000000000000004000000002000000000001000000000000000000000000000800100000000000000000000000000000000020000000000000000000000000000000000000100000",
      "type": "0x2",
      "effectiveGasPrice": "0x5bbda5ba"
    },
    {
      "transactionHash": "0xdeff896ab302a31d505ad04c90dd6deb875ef52cc76335bedbd74cc1f80d53fe",
      "transactionIndex": "0x4",
      "blockHash": "0x9ee4c59f528873a1908163f806811ff8fc512ad0aa531169ffc0db4eff4470bc",
      "blockNumber": "0x2899f15",
      "from": "0xe2D3C55a61BE30ce58324Be5bd188F1bEAc06f58",
      "to": "0xf5b011f57E66d809A1569Facad3679CD2dB32984",
      "cumulativeGasUsed": "0x192742",
      "gasUsed": "0x692a",
      "contractAddress": null,
      "logs": [
        {
          "address": "0xf5b011f57E66d809A1569Facad3679CD2dB32984",
          "topics": [
            "0xddf252ad1be2c89b69c2b068fc378daa952ba7f163c4a11628f55a4df523b3ef",
            "0x000000000000000000000000e2d3c55a61be30ce58324be5bd188f1beac06f58",
            "0x000000000000000000000000e2d3c55a61be30ce58324be5bd188f1beac06f58"
          ],
          "data": "0x00000000000000000000000000000000000000000000152d02c7e14af6800000",
          "blockHash": "0x9ee4c59f528873a1908163f806811ff8fc512ad0aa531169ffc0db4eff4470bc",
          "blockNumber": "0x2899f15",
          "transactionHash": "0xdeff896ab302a31d505ad04c90dd6deb875ef52cc76335bedbd74cc1f80d53fe",
          "transactionIndex": "0x4",
          "logIndex": "0xf",
          "removed": false
        },
        {
          "address": "0x0000000000000000000000000000000000001010",
          "topics": [
            "0x4dfe1bbbcf077ddc3e01291eea2d5c70c2b422b415d95645b9adcfd678cb1d63",
            "0x0000000000000000000000000000000000000000000000000000000000001010",
            "0x000000000000000000000000e2d3c55a61be30ce58324be5bd188f1beac06f58",
            "0x000000000000000000000000c26880a0af2ea0c7e8130e6ec47af756465452e8"
          ],
          "data": "0x000000000000000000000000000000000000000000000000000025afd610510e0000000000000000000000000000000000000000000000000ccefb8d0e818eb90000000000000000000000000000000000000000000022a2b6c8660196d554080000000000000000000000000000000000000000000000000cced5dd38713dab0000000000000000000000000000000000000000000022a2b6c88bb16ce5a516",
          "blockHash": "0x9ee4c59f528873a1908163f806811ff8fc512ad0aa531169ffc0db4eff4470bc",
          "blockNumber": "0x2899f15",
          "transactionHash": "0xdeff896ab302a31d505ad04c90dd6deb875ef52cc76335bedbd74cc1f80d53fe",
          "transactionIndex": "0x4",
          "logIndex": "0x10",
          "removed": false
        }
      ],
      "status": "0x1",
      "logsBloom": "0x00000000000000020000000000000000000000000000000000000000000000000001000000000000000000000000000000008000000000000000000000000000000000000010000000000008000000800000000000000000000100000000000000000000000000000000000000000000000000000000000080000010000000000000000000000088008000000000000000000000000000000000000000000000200000000000000020000000000000000001000000000000000000000000024000000002000000000001000000000000000000000000000000100000000000000000000000000000000000000000000000000000000000000000000000100000",
      "type": "0x2",
      "effectiveGasPrice": "0x5bbda5ba"
    },
    {
      "transactionHash": "0x6f4f834204db71e8e78fcbd55d43cdbc1fd99f655c01659c9020e07fc3fa8b17",
      "transactionIndex": "0x5",
      "blockHash": "0x9ee4c59f528873a1908163f806811ff8fc512ad0aa531169ffc0db4eff4470bc",
      "blockNumber": "0x2899f15",
      "from": "0xe2D3C55a61BE30ce58324Be5bd188F1bEAc06f58",
      "to": null,
      "cumulativeGasUsed": "0x2c6e51",
      "gasUsed": "0x13470f",
      "contractAddress": "0x531BD029c3cD1a111f9dE205890469C2C18f69dC",
      "logs": [
        {
          "address": "0x0000000000000000000000000000000000001010",
          "topics": [
            "0x4dfe1bbbcf077ddc3e01291eea2d5c70c2b422b415d95645b9adcfd678cb1d63",
            "0x0000000000000000000000000000000000000000000000000000000000001010",
            "0x000000000000000000000000e2d3c55a61be30ce58324be5bd188f1beac06f58",
            "0x000000000000000000000000c26880a0af2ea0c7e8130e6ec47af756465452e8"
          ],
          "data": "0x0000000000000000000000000000000000000000000000000006e88a44c022050000000000000000000000000000000000000000000000000cced5dd386b14350000000000000000000000000000000000000000000022a2b6c88bb16ce5a5160000000000000000000000000000000000000000000000000cc7ed52f3aaf2300000000000000000000000000000000000000000000022a2b6cf743bb1a5c71b",
          "blockHash": "0x9ee4c59f528873a1908163f806811ff8fc512ad0aa531169ffc0db4eff4470bc",
          "blockNumber": "0x2899f15",
          "transactionHash": "0x6f4f834204db71e8e78fcbd55d43cdbc1fd99f655c01659c9020e07fc3fa8b17",
          "transactionIndex": "0x5",
          "logIndex": "0x11",
          "removed": false
        }
      ],
      "status": "0x1",
      "logsBloom": "0x00000000000000020000000000000000000000000000000000000000000000000000000000000000000000000000000000008000000000000000000000000000000000000000000000000000000000800000000000000000000100000000000000000000000000000000000000000000000000000000000080000000000000000000000000000088008000000000000000000000000000000000000000000000200000000000000020000000000000000001000000000000000000000000004000000000000000000001000000000000000000000000000000100000000000000000000000000000000000000000000000000000000000000000000000100000",
      "type": "0x2",
      "effectiveGasPrice": "0x5bbda5ba"
    },
    {
      "transactionHash": "0xc0d9395d2930d1caf34a74c4874ca383e6b91926b1d3876c2883f302bb51b5cb",
      "transactionIndex": "0x6",
      "blockHash": "0x9ee4c59f528873a1908163f806811ff8fc512ad0aa531169ffc0db4eff4470bc",
      "blockNumber": "0x2899f15",
      "from": "0xe2D3C55a61BE30ce58324Be5bd188F1bEAc06f58",
      "to": "0x75025D2470BC8a4E59Fd53477770F3dAB4d77942",
      "cumulativeGasUsed": "0x2d238c",
      "gasUsed": "0xb53b",
      "contractAddress": null,
      "logs": [
        {
          "address": "0x75025D2470BC8a4E59Fd53477770F3dAB4d77942",
          "topics": [
            "0x8c5be1e5ebec7d5bd14f71427d1e84f3dd0314c0f7b2291e5b200ac8c7c3b925",
            "0x000000000000000000000000e2d3c55a61be30ce58324be5bd188f1beac06f58",
            "0x000000000000000000000000531bd029c3cd1a111f9de205890469c2c18f69dc"
          ],
          "data": "0x00000000000000000000000000000000000000000000152d02c7e14af6800000",
          "blockHash": "0x9ee4c59f528873a1908163f806811ff8fc512ad0aa531169ffc0db4eff4470bc",
          "blockNumber": "0x2899f15",
          "transactionHash": "0xc0d9395d2930d1caf34a74c4874ca383e6b91926b1d3876c2883f302bb51b5cb",
          "transactionIndex": "0x6",
          "logIndex": "0x12",
          "removed": false
        },
        {
          "address": "0x0000000000000000000000000000000000001010",
          "topics": [
            "0x4dfe1bbbcf077ddc3e01291eea2d5c70c2b422b415d95645b9adcfd678cb1d63",
            "0x0000000000000000000000000000000000000000000000000000000000001010",
            "0x000000000000000000000000e2d3c55a61be30ce58324be5bd188f1beac06f58",
            "0x000000000000000000000000c26880a0af2ea0c7e8130e6ec47af756465452e8"
          ],
          "data": "0x000000000000000000000000000000000000000000000000000040f23ad715690000000000000000000000000000000000000000000000000cc7ed52f289c84f0000000000000000000000000000000000000000000022a2b6cf743bb1a5c71b0000000000000000000000000000000000000000000000000cc7ac60b7b2b2e60000000000000000000000000000000000000000000022a2b6cfb52dec7cdc84",
          "blockHash": "0x9ee4c59f528873a1908163f806811ff8fc512ad0aa531169ffc0db4eff4470bc",
          "blockNumber": "0x2899f15",
          "transactionHash": "0xc0d9395d2930d1caf34a74c4874ca383e6b91926b1d3876c2883f302bb51b5cb",
          "transactionIndex": "0x6",
          "logIndex": "0x13",
          "removed": false
        }
      ],
      "status": "0x1",
      "logsBloom": "0x00000000000000020000000000000000000000000400000000000000000000000000000000000000000000000400000000008000000000000000000000200000000000000000000000000000000000800000000000000000000100000000000000000000000000000000000000000000000000000000000080000000000000000000000800000088008000000000000000000000000000000000000000000000220000000000000020000000000000000001000000000000000000000000004000000000080000000001000000000000000000000000000800100000000000000010000000000000000020000000000000000000000000000000000000100000",
      "type": "0x2",
      "effectiveGasPrice": "0x5bbda5ba"
    },
    {
      "transactionHash": "0x616ba191e38740dde45cf7c09cdc4e0ac73e391add38773eddcca866b4f0ec6a",
      "transactionIndex": "0x7",
      "blockHash": "0x9ee4c59f528873a1908163f806811ff8fc512ad0aa531169ffc0db4eff4470bc",
      "blockNumber": "0x2899f15",
      "from": "0xe2D3C55a61BE30ce58324Be5bd188F1bEAc06f58",
      "to": "0xf5b011f57E66d809A1569Facad3679CD2dB32984",
      "cumulativeGasUsed": "0x2dd8c7",
      "gasUsed": "0xb53b",
      "contractAddress": null,
      "logs": [
        {
          "address": "0xf5b011f57E66d809A1569Facad3679CD2dB32984",
          "topics": [
            "0x8c5be1e5ebec7d5bd14f71427d1e84f3dd0314c0f7b2291e5b200ac8c7c3b925",
            "0x000000000000000000000000e2d3c55a61be30ce58324be5bd188f1beac06f58",
            "0x000000000000000000000000531bd029c3cd1a111f9de205890469c2c18f69dc"
          ],
          "data": "0x00000000000000000000000000000000000000000000152d02c7e14af6800000",
          "blockHash": "0x9ee4c59f528873a1908163f806811ff8fc512ad0aa531169ffc0db4eff4470bc",
          "blockNumber": "0x2899f15",
          "transactionHash": "0x616ba191e38740dde45cf7c09cdc4e0ac73e391add38773eddcca866b4f0ec6a",
          "transactionIndex": "0x7",
          "logIndex": "0x14",
          "removed": false
        },
        {
          "address": "0x0000000000000000000000000000000000001010",
          "topics": [
            "0x4dfe1bbbcf077ddc3e01291eea2d5c70c2b422b415d95645b9adcfd678cb1d63",
            "0x0000000000000000000000000000000000000000000000000000000000001010",
            "0x000000000000000000000000e2d3c55a61be30ce58324be5bd188f1beac06f58",
            "0x000000000000000000000000c26880a0af2ea0c7e8130e6ec47af756465452e8"
          ],
          "data": "0x000000000000000000000000000000000000000000000000000040f23ad715690000000000000000000000000000000000000000000000000cc7ac60b7a814710000000000000000000000000000000000000000000022a2b6cfb52dec7cdc840000000000000000000000000000000000000000000000000cc76b6e7cd0ff080000000000000000000000000000000000000000000022a2b6cff6202753f1ed",
          "blockHash": "0x9ee4c59f528873a1908163f806811ff8fc512ad0aa531169ffc0db4eff4470bc",
          "blockNumber": "0x2899f15",
          "transactionHash": "0x616ba191e38740dde45cf7c09cdc4e0ac73e391add38773eddcca866b4f0ec6a",
          "transactionIndex": "0x7",
          "logIndex": "0x15",
          "removed": false
        }
      ],
      "status": "0x1",
      "logsBloom": "0x00000000000000020000000000000000000000000400000000000000000000000001000000000000000000000000000000008000000000000000000000200000000000000010000000000000000000800000000000000000000100000000000000000000000000000000000000000000000000000000000080000000000000000000000800000088008000000000000000000000000000000000000000000000220000000000000020000000000000000001000000000000000000000000024000000000080000000001000000000000000000000000000000100000000000000010000000000000000000000000000000000000000000000000000000100000",
      "type": "0x2",
      "effectiveGasPrice": "0x5bbda5ba"
    },
    {
      "transactionHash": "0x6058e53b817328a894276121150af7a09348ea0fcfc5305044d3d0ecd39ed7d5",
      "transactionIndex": "0x8",
      "blockHash": "0x9ee4c59f528873a1908163f806811ff8fc512ad0aa531169ffc0db4eff4470bc",
      "blockNumber": "0x2899f15",
      "from": "0xe2D3C55a61BE30ce58324Be5bd188F1bEAc06f58",
      "to": "0x531BD029c3cD1a111f9dE205890469C2C18f69dC",
      "cumulativeGasUsed": "0x2eead8",
      "gasUsed": "0x11211",
      "contractAddress": null,
      "logs": [
        {
          "address": "0x531BD029c3cD1a111f9dE205890469C2C18f69dC",
          "topics": [
            "0x4f2ce4e40f623ca765fc0167a25cb7842ceaafb8d82d3dec26ca0d0e0d2d4896"
          ],
          "data": "0x00000000000000000000000075025d2470bc8a4e59fd53477770f3dab4d77942000000000000000000000000f5b011f57e66d809a1569facad3679cd2db32984",
          "blockHash": "0x9ee4c59f528873a1908163f806811ff8fc512ad0aa531169ffc0db4eff4470bc",
          "blockNumber": "0x2899f15",
          "transactionHash": "0x6058e53b817328a894276121150af7a09348ea0fcfc5305044d3d0ecd39ed7d5",
          "transactionIndex": "0x8",
          "logIndex": "0x16",
          "removed": false
        },
        {
          "address": "0x0000000000000000000000000000000000001010",
          "topics": [
            "0x4dfe1bbbcf077ddc3e01291eea2d5c70c2b422b415d95645b9adcfd678cb1d63",
            "0x0000000000000000000000000000000000000000000000000000000000001010",
            "0x000000000000000000000000e2d3c55a61be30ce58324be5bd188f1beac06f58",
            "0x000000000000000000000000c26880a0af2ea0c7e8130e6ec47af756465452e8"
          ],
          "data": "0x0000000000000000000000000000000000000000000000000000623712e9065b0000000000000000000000000000000000000000000000000cc76b6e7cc660930000000000000000000000000000000000000000000022a2b6cff6202753f1ed0000000000000000000000000000000000000000000000000cc7093769dd5a380000000000000000000000000000000000000000000022a2b6d058573a3cf848",
          "blockHash": "0x9ee4c59f528873a1908163f806811ff8fc512ad0aa531169ffc0db4eff4470bc",
          "blockNumber": "0x2899f15",
          "transactionHash": "0x6058e53b817328a894276121150af7a09348ea0fcfc5305044d3d0ecd39ed7d5",
          "transactionIndex": "0x8",
          "logIndex": "0x17",
          "removed": false
        }
      ],
      "status": "0x1",
      "logsBloom": "0x00000000000000020000000000000000000000000000000000000000000000000000000000000000000000000000000000008000000000000000000000000000000000000000000000000000000000800000000000000000000100000000000000200000000000000000000000000000000000000000000080000000002000000000200000000088008000000000000000000000000000000000000000000000200000000000000020000000000200000001000000000000000000000000004000000000000200000001000000000010000000000000000000100000000000000000000000000000000000000000000000000000000000000000000000100000",
      "type": "0x2",
      "effectiveGasPrice": "0x5bbda5ba"
    },
    {
      "transactionHash": "0x7b72228a1fbeaa3d5f7c3e1285bf98a3da2fc5e2b074638f1f1b04ecf7490766",
      "transactionIndex": "0x9",
      "blockHash": "0x9ee4c59f528873a1908163f806811ff8fc512ad0aa531169ffc0db4eff4470bc",
      "blockNumber": "0x2899f15",
      "from": "0xe2D3C55a61BE30ce58324Be5bd188F1bEAc06f58",
      "to": "0x531BD029c3cD1a111f9dE205890469C2C18f69dC",
      "cumulativeGasUsed": "0x313292",
      "gasUsed": "0x247ba",
      "contractAddress": null,
      "logs": [
        {
          "address": "0x75025D2470BC8a4E59Fd53477770F3dAB4d77942",
          "topics": [
            "0xddf252ad1be2c89b69c2b068fc378daa952ba7f163c4a11628f55a4df523b3ef",
            "0x000000000000000000000000e2d3c55a61be30ce58324be5bd188f1beac06f58",
            "0x000000000000000000000000531bd029c3cd1a111f9de205890469c2c18f69dc"
          ],
          "data": "0x0000000000000000000000000000000000000000000000008ac7230489e80000",
          "blockHash": "0x9ee4c59f528873a1908163f806811ff8fc512ad0aa531169ffc0db4eff4470bc",
          "blockNumber": "0x2899f15",
          "transactionHash": "0x7b72228a1fbeaa3d5f7c3e1285bf98a3da2fc5e2b074638f1f1b04ecf7490766",
          "transactionIndex": "0x9",
          "logIndex": "0x18",
          "removed": false
        },
        {
          "address": "0xf5b011f57E66d809A1569Facad3679CD2dB32984",
          "topics": [
            "0xddf252ad1be2c89b69c2b068fc378daa952ba7f163c4a11628f55a4df523b3ef",
            "0x000000000000000000000000e2d3c55a61be30ce58324be5bd188f1beac06f58",
            "0x000000000000000000000000531bd029c3cd1a111f9de205890469c2c18f69dc"
          ],
          "data": "0x00000000000000000000000000000000000000000000042773af98fcc85a8000",
          "blockHash": "0x9ee4c59f528873a1908163f806811ff8fc512ad0aa531169ffc0db4eff4470bc",
          "blockNumber": "0x2899f15",
          "transactionHash": "0x7b72228a1fbeaa3d5f7c3e1285bf98a3da2fc5e2b074638f1f1b04ecf7490766",
          "transactionIndex": "0x9",
          "logIndex": "0x19",
          "removed": false
        },
        {
          "address": "0x531BD029c3cD1a111f9dE205890469C2C18f69dC",
          "topics": [
            "0x38f8a0c92f4c5b0b6877f878cb4c0c8d348a47b76d716c8e78f425043df9515b"
          ],
          "data": "0x0000000000000000000000000000000000000000000000008ac7230489e8000000000000000000000000000000000000000000000000042773af98fcc85a8000",
          "blockHash": "0x9ee4c59f528873a1908163f806811ff8fc512ad0aa531169ffc0db4eff4470bc",
          "blockNumber": "0x2899f15",
          "transactionHash": "0x7b72228a1fbeaa3d5f7c3e1285bf98a3da2fc5e2b074638f1f1b04ecf7490766",
          "transactionIndex": "0x9",
          "logIndex": "0x1a",
          "removed": false
        },
        {
          "address": "0x0000000000000000000000000000000000001010",
          "topics": [
            "0x4dfe1bbbcf077ddc3e01291eea2d5c70c2b422b415d95645b9adcfd678cb1d63",
            "0x0000000000000000000000000000000000000000000000000000000000001010",
            "0x000000000000000000000000e2d3c55a61be30ce58324be5bd188f1beac06f58",
            "0x000000000000000000000000c26880a0af2ea0c7e8130e6ec47af756465452e8"
          ],
          "data": "0x0000000000000000000000000000000000000000000000000000d12f8c12cb3e0000000000000000000000000000000000000000000000000cc7093769cd4b390000000000000000000000000000000000000000000022a2b6d058573a3cf8480000000000000000000000000000000000000000000000000cc63807ddba7ffb0000000000000000000000000000000000000000000022a2b6d12986c64fc386",
          "blockHash": "0x9ee4c59f528873a1908163f806811ff8fc512ad0aa531169ffc0db4eff4470bc",
          "blockNumber": "0x2899f15",
          "transactionHash": "0x7b72228a1fbeaa3d5f7c3e1285bf98a3da2fc5e2b074638f1f1b04ecf7490766",
          "transactionIndex": "0x9",
          "logIndex": "0x1b",
          "removed": false
        }
      ],
      "status": "0x1",
      "logsBloom": "0x00000000000000020000000000000000000000000400000000000000000000000801000000000000000000000400000000008000000000000000000000000000000000000010000000000008000000800000000000000000000100000000000000000000000000000000000000000000000000000000000080000010002000000000200800000088008000000000000000000000000000000000000000000000200000000000080020000000000000000001000000000000000010000000024000000002080200000001000000000000000000000000000800100000000000000000000000000000000020000000000000000000000000000000000000100000",
      "type": "0x2",
      "effectiveGasPrice": "0x5bbda5ba"
    }
  ],
  "libraries": [],
  "pending": [],
  "returns": {},
  "timestamp": 1700370424,
  "chain": 80001,
  "multi": false,
  "commit": "f55005c"
}